{
  "contractName": "ProductTraceability",
  "abi": [
    {
      "inputs": [
        {
          "internalType": "uint256",
          "name": "",
          "type": "uint256"
        }
      ],
      "name": "farmers",
      "outputs": [
        {
          "internalType": "string",
          "name": "name",
          "type": "string"
        },
        {
          "internalType": "string",
          "name": "location",
          "type": "string"
        },
        {
          "internalType": "string",
          "name": "productDetails",
          "type": "string"
        }
      ],
      "stateMutability": "view",
      "type": "function"
    },
    {
      "inputs": [
        {
          "internalType": "uint256",
          "name": "",
          "type": "uint256"
        }
      ],
      "name": "retailers",
      "outputs": [
        {
          "internalType": "string",
          "name": "name",
          "type": "string"
        },
        {
          "internalType": "string",
          "name": "storeLocation",
          "type": "string"
        },
        {
          "internalType": "uint256",
          "name": "timestamp",
          "type": "uint256"
        }
      ],
      "stateMutability": "view",
      "type": "function"
    },
    {
      "inputs": [
        {
          "internalType": "uint256",
          "name": "",
          "type": "uint256"
        }
      ],
      "name": "transporters",
      "outputs": [
        {
          "internalType": "string",
          "name": "name",
          "type": "string"
        },
        {
          "internalType": "string",
          "name": "licensePlate",
          "type": "string"
        },
        {
          "internalType": "uint256",
          "name": "timestamp",
          "type": "uint256"
        }
      ],
      "stateMutability": "view",
      "type": "function"
    },
    {
      "inputs": [
        {
          "internalType": "string",
          "name": "name",
          "type": "string"
        },
        {
          "internalType": "string",
          "name": "location",
          "type": "string"
        },
        {
          "internalType": "string",
          "name": "productDetails",
          "type": "string"
        }
      ],
      "name": "addFarmer",
      "outputs": [],
      "stateMutability": "nonpayable",
      "type": "function"
    },
    {
      "inputs": [
        {
          "internalType": "string",
          "name": "name",
          "type": "string"
        },
        {
          "internalType": "string",
          "name": "licensePlate",
          "type": "string"
        },
        {
          "internalType": "uint256",
          "name": "timestamp",
          "type": "uint256"
        }
      ],
      "name": "addTransporter",
      "outputs": [],
      "stateMutability": "nonpayable",
      "type": "function"
    },
    {
      "inputs": [
        {
          "internalType": "string",
          "name": "name",
          "type": "string"
        },
        {
          "internalType": "string",
          "name": "storeLocation",
          "type": "string"
        },
        {
          "internalType": "uint256",
          "name": "timestamp",
          "type": "uint256"
        }
      ],
      "name": "addRetailer",
      "outputs": [],
      "stateMutability": "nonpayable",
      "type": "function"
    },
    {
      "inputs": [],
      "name": "getFarmers",
      "outputs": [
        {
          "components": [
            {
              "internalType": "string",
              "name": "name",
              "type": "string"
            },
            {
              "internalType": "string",
              "name": "location",
              "type": "string"
            },
            {
              "internalType": "string",
              "name": "productDetails",
              "type": "string"
            }
          ],
          "internalType": "struct ProductTraceability.Farmer[]",
          "name": "",
          "type": "tuple[]"
        }
      ],
      "stateMutability": "view",
      "type": "function"
    },
    {
      "inputs": [],
      "name": "getTransporters",
      "outputs": [
        {
          "components": [
            {
              "internalType": "string",
              "name": "name",
              "type": "string"
            },
            {
              "internalType": "string",
              "name": "licensePlate",
              "type": "string"
            },
            {
              "internalType": "uint256",
              "name": "timestamp",
              "type": "uint256"
            }
          ],
          "internalType": "struct ProductTraceability.Transporter[]",
          "name": "",
          "type": "tuple[]"
        }
      ],
      "stateMutability": "view",
      "type": "function"
    },
    {
      "inputs": [],
      "name": "getRetailers",
      "outputs": [
        {
          "components": [
            {
              "internalType": "string",
              "name": "name",
              "type": "string"
            },
            {
              "internalType": "string",
              "name": "storeLocation",
              "type": "string"
            },
            {
              "internalType": "uint256",
              "name": "timestamp",
              "type": "uint256"
            }
          ],
          "internalType": "struct ProductTraceability.Retailer[]",
          "name": "",
          "type": "tuple[]"
        }
      ],
      "stateMutability": "view",
      "type": "function"
    }
  ],
  "bytecode": "0x608060405234801561001057600080fd5b50611649806100206000396000f3fe608060405234801561001057600080fd5b50600436106100935760003560e01c8063789f8d4011610066578063789f8d4014610120578063897ec7df1461013e5780638afdd66914610170578063d2fb5c14146101a2578063fb12d93d146101be57610093565b806329c2a8771461009857806335ba06b2146100ca5780633cdad036146100e857806376fe840c14610104575b600080fd5b6100b260048036038101906100ad9190610f7f565b6101dc565b6040516100c193929190611391565b60405180910390f35b6100d2610326565b6040516100df9190611323565b60405180910390f35b61010260048036038101906100fd9190610f00565b6104b3565b005b61011e60048036038101906101199190610e69565b61054a565b005b6101286105f4565b60405161013591906112df565b60405180910390f35b61015860048036038101906101539190610f7f565b610809565b60405161016793929190611391565b60405180910390f35b61018a60048036038101906101859190610f7f565b610953565b60405161019993929190611345565b60405180910390f35b6101bc60048036038101906101b79190610f00565b610b25565b005b6101c6610bbc565b6040516101d39190611301565b60405180910390f35b600181815481106101ec57600080fd5b906000526020600020906003020160009150905080600001805461020f9061155b565b80601f016020809104026020016040519081016040528092919081815260200182805461023b9061155b565b80156102885780601f1061025d57610100808354040283529160200191610288565b820191906000526020600020905b81548152906001019060200180831161026b57829003601f168201915b50505050509080600101805461029d9061155b565b80601f01602080910402602001604051908101604052809291908181526020018280546102c99061155b565b80156103165780601f106102eb57610100808354040283529160200191610316565b820191906000526020600020905b8154815290600101906020018083116102f957829003601f168201915b5050505050908060020154905083565b60606001805480602002602001604051908101604052809291908181526020016000905b828210156104aa578382906000526020600020906003020160405180606001604052908160008201805461037d9061155b565b80601f01602080910402602001604051908101604052809291908181526020018280546103a99061155b565b80156103f65780601f106103cb576101008083540402835291602001916103f6565b820191906000526020600020905b8154815290600101906020018083116103d957829003601f168201915b5050505050815260200160018201805461040f9061155b565b80601f016020809104026020016040519081016040528092919081815260200182805461043b9061155b565b80156104885780601f1061045d57610100808354040283529160200191610488565b820191906000526020600020905b81548152906001019060200180831161046b57829003601f168201915b505050505081526020016002820154815250508152602001906001019061034a565b50505050905090565b600060405180606001604052808581526020018481526020018381525090506001819080600181540180825580915050600190039060005260206000209060030201600090919091909150600082015181600001908051906020019061051a929190610d49565b506020820151816001019080519060200190610537929190610d49565b5060408201518160020155505050505050565b60006040518060600160405280858152602001848152602001838152509050600081908060018154018082558091505060019003906000526020600020906003020160009091909190915060008201518160000190805190602001906105b1929190610d49565b5060208201518160010190805190602001906105ce929190610d49565b5060408201518160020190805190602001906105eb929190610d49565b50505050505050565b60606000805480602002602001604051908101604052809291908181526020016000905b82821015610800578382906000526020600020906003020160405180606001604052908160008201805461064b9061155b565b80601f01602080910402602001604051908101604052809291908181526020018280546106779061155b565b80156106c45780601f10610699576101008083540402835291602001916106c4565b820191906000526020600020905b8154815290600101906020018083116106a757829003601f168201915b505050505081526020016001820180546106dd9061155b565b80601f01602080910402602001604051908101604052809291908181526020018280546107099061155b565b80156107565780601f1061072b57610100808354040283529160200191610756565b820191906000526020600020905b81548152906001019060200180831161073957829003601f168201915b5050505050815260200160028201805461076f9061155b565b80601f016020809104026020016040519081016040528092919081815260200182805461079b9061155b565b80156107e85780601f106107bd576101008083540402835291602001916107e8565b820191906000526020600020905b8154815290600101906020018083116107cb57829003601f168201915b50505050508152505081526020019060010190610618565b50505050905090565b6002818154811061081957600080fd5b906000526020600020906003020160009150905080600001805461083c9061155b565b80601f01602080910402602001604051908101604052809291908181526020018280546108689061155b565b80156108b55780601f1061088a576101008083540402835291602001916108b5565b820191906000526020600020905b81548152906001019060200180831161089857829003601f168201915b5050505050908060010180546108ca9061155b565b80601f01602080910402602001604051908101604052809291908181526020018280546108f69061155b565b80156109435780601f1061091857610100808354040283529160200191610943565b820191906000526020600020905b81548152906001019060200180831161092657829003601f168201915b5050505050908060020154905083565b6000818154811061096357600080fd5b90600052602060002090600302016000915090508060000180546109869061155b565b80601f01602080910402602001604051908101604052809291908181526020018280546109b29061155b565b80156109ff5780601f106109d4576101008083540402835291602001916109ff565b820191906000526020600020905b8154815290600101906020018083116109e257829003601f168201915b505050505090806001018054610a149061155b565b80601f0160208091040260200160405190810160405280929190818152602001828054610a409061155b565b8015610a8d5780601f10610a6257610100808354040283529160200191610a8d565b820191906000526020600020905b815481529060010190602001808311610a7057829003601f168201915b505050505090806002018054610aa29061155b565b80601f0160208091040260200160405190810160405280929190818152602001828054610ace9061155b565b8015610b1b5780601f10610af057610100808354040283529160200191610b1b565b820191906000526020600020905b815481529060010190602001808311610afe57829003601f168201915b5050505050905083565b6000604051806060016040528085815260200184815260200183815250905060028190806001815401808255809150506001900390600052602060002090600302016000909190919091506000820151816000019080519060200190610b8c929190610d49565b506020820151816001019080519060200190610ba9929190610d49565b5060408201518160020155505050505050565b60606002805480602002602001604051908101604052809291908181526020016000905b82821015610d405783829060005260206000209060030201604051806060016040529081600082018054610c139061155b565b80601f0160208091040260200160405190810160405280929190818152602001828054610c3f9061155b565b8015610c8c5780601f10610c6157610100808354040283529160200191610c8c565b820191906000526020600020905b815481529060010190602001808311610c6f57829003601f168201915b50505050508152602001600182018054610ca59061155b565b80601f0160208091040260200160405190810160405280929190818152602001828054610cd19061155b565b8015610d1e5780601f10610cf357610100808354040283529160200191610d1e565b820191906000526020600020905b815481529060010190602001808311610d0157829003601f168201915b5050505050815260200160028201548152505081526020019060010190610be0565b50505050905090565b828054610d559061155b565b90600052602060002090601f016020900481019282610d775760008555610dbe565b82601f10610d9057805160ff1916838001178555610dbe565b82800160010185558215610dbe579182015b82811115610dbd578251825591602001919060010190610da2565b5b509050610dcb9190610dcf565b5090565b5b80821115610de8576000816000905550600101610dd0565b5090565b6000610dff610dfa84611407565b6113d6565b905082815260208101848484011115610e1757600080fd5b610e22848285611519565b509392505050565b600082601f830112610e3b57600080fd5b8135610e4b848260208601610dec565b91505092915050565b600081359050610e63816115fc565b92915050565b600080600060608486031215610e7e57600080fd5b600084013567ffffffffffffffff811115610e9857600080fd5b610ea486828701610e2a565b935050602084013567ffffffffffffffff811115610ec157600080fd5b610ecd86828701610e2a565b925050604084013567ffffffffffffffff811115610eea57600080fd5b610ef686828701610e2a565b9150509250925092565b600080600060608486031215610f1557600080fd5b600084013567ffffffffffffffff811115610f2f57600080fd5b610f3b86828701610e2a565b935050602084013567ffffffffffffffff811115610f5857600080fd5b610f6486828701610e2a565b9250506040610f7586828701610e54565b9150509250925092565b600060208284031215610f9157600080fd5b6000610f9f84828501610e54565b91505092915050565b6000610fb483836111b5565b905092915050565b6000610fc88383611213565b905092915050565b6000610fdc838361126a565b905092915050565b6000610fef82611467565b610ff981856114ba565b93508360208202850161100b85611437565b8060005b8581101561104757848403895281516110288582610fa8565b945061103383611493565b925060208a0199505060018101905061100f565b50829750879550505050505092915050565b600061106482611472565b61106e81856114cb565b93508360208202850161108085611447565b8060005b858110156110bc578484038952815161109d8582610fbc565b94506110a8836114a0565b925060208a01995050600181019050611084565b50829750879550505050505092915050565b60006110d98261147d565b6110e381856114dc565b9350836020820285016110f585611457565b8060005b8581101561113157848403895281516111128582610fd0565b945061111d836114ad565b925060208a019950506001810190506110f9565b50829750879550505050505092915050565b600061114e82611488565b61115881856114ed565b9350611168818560208601611528565b611171816115eb565b840191505092915050565b600061118782611488565b61119181856114fe565b93506111a1818560208601611528565b6111aa816115eb565b840191505092915050565b600060608301600083015184820360008601526111d28282611143565b915050602083015184820360208601526111ec8282611143565b915050604083015184820360408601526112068282611143565b9150508091505092915050565b600060608301600083015184820360008601526112308282611143565b9150506020830151848203602086015261124a8282611143565b915050604083015161125f60408601826112c1565b508091505092915050565b600060608301600083015184820360008601526112878282611143565b915050602083015184820360208601526112a18282611143565b91505060408301516112b660408601826112c1565b508091505092915050565b6112ca8161150f565b82525050565b6112d98161150f565b82525050565b600060208201905081810360008301526112f98184610fe4565b905092915050565b6000602082019050818103600083015261131b8184611059565b905092915050565b6000602082019050818103600083015261133d81846110ce565b905092915050565b6000606082019050818103600083015261135f818661117c565b90508181036020830152611373818561117c565b90508181036040830152611387818461117c565b9050949350505050565b600060608201905081810360008301526113ab818661117c565b905081810360208301526113bf818561117c565b90506113ce60408301846112d0565b949350505050565b6000604051905081810181811067ffffffffffffffff821117156113fd576113fc6115bc565b5b8060405250919050565b600067ffffffffffffffff821115611422576114216115bc565b5b601f19601f8301169050602081019050919050565b6000819050602082019050919050565b6000819050602082019050919050565b6000819050602082019050919050565b600081519050919050565b600081519050919050565b600081519050919050565b600081519050919050565b6000602082019050919050565b6000602082019050919050565b6000602082019050919050565b600082825260208201905092915050565b600082825260208201905092915050565b600082825260208201905092915050565b600082825260208201905092915050565b600082825260208201905092915050565b6000819050919050565b82818337600083830152505050565b60005b8381101561154657808201518184015260208101905061152b565b83811115611555576000848401525b50505050565b6000600282049050600182168061157357607f821691505b602082108114156115875761158661158d565b5b50919050565b7f4e487b7100000000000000000000000000000000000000000000000000000000600052602260045260246000fd5b7f4e487b7100000000000000000000000000000000000000000000000000000000600052604160045260246000fd5b6000601f19601f8301169050919050565b6116058161150f565b811461161057600080fd5b5056fea2646970667358221220e46d2f489d7934844c7e436d49d064f43ac517826184b08169e9c298c26ab9f564736f6c63430008000033",
  "immutableReferences": {},
  "source": "// SPDX-License-Identifier: MIT\r\npragma solidity ^0.8.0;\r\n\r\ncontract ProductTraceability {\r\n    struct Farmer {\r\n        string name;\r\n        string location;\r\n        string productDetails;\r\n    }\r\n    \r\n    struct Transporter {\r\n        string name;\r\n        string licensePlate;\r\n        uint timestamp;\r\n    }\r\n    \r\n    struct Retailer {\r\n        string name;\r\n        string storeLocation;\r\n        uint timestamp;\r\n    }\r\n\r\n    Farmer[] public farmers;\r\n    Transporter[] public transporters;\r\n    Retailer[] public retailers;\r\n\r\n    function addFarmer(string memory name, string memory location, string memory productDetails) public {\r\n        Farmer memory newFarmer = Farmer(name, location, productDetails);\r\n        farmers.push(newFarmer);\r\n    }\r\n\r\n    function addTransporter(string memory name, string memory licensePlate, uint timestamp) public {\r\n        Transporter memory newTransporter = Transporter(name, licensePlate, timestamp);\r\n        transporters.push(newTransporter);\r\n    }\r\n\r\n    function addRetailer(string memory name, string memory storeLocation, uint timestamp) public {\r\n        Retailer memory newRetailer = Retailer(name, storeLocation, timestamp);\r\n        retailers.push(newRetailer);\r\n    }\r\n\r\n    function getFarmers() public view returns (Farmer[] memory) {\r\n        return farmers;\r\n    }\r\n\r\n    function getTransporters() public view returns (Transporter[] memory) {\r\n        return transporters;\r\n    }\r\n\r\n    function getRetailers() public view returns (Retailer[] memory) {\r\n        return retailers;\r\n    }\r\n}\r\n",
  "sourcePath": "D:\\atest\\contracts\\ProductTraceability.sol",
  "compiler": {
    "name": "solc",
    "version": "0.8.0+commit.c7dfd78e.Emscripten.clang"
  },
  "schemaVersion": "3.4.16",
  "updatedAt": "2024-10-07T14:25:11.054Z",
  "devdoc": {
    "kind": "dev",
    "methods": {},
    "version": 1
  },
  "userdoc": {
    "kind": "user",
    "methods": {},
    "version": 1
  }
}